:020000040800F2
:10000000A804002001010008CD1C0008C914000844
:10001000C91C0008B906000887230008000000007A
:10002000000000000000000000000000F9200008AF
:10003000BD06000800000000CD200008FB200008DD
:100040001B0100081B0100081B0100081B01000820
:100050001B0100081B0100081B0100081B01000810
:100060001B0100081B0100081B0100081B01000800
:100070001B0100081B0100081B0100081B010008F0
:100080001B0100081B0100081B0100081B010008E0
:100090001B0100081B0100081B0100081B010008D0
:1000A0001B0100081B0100081B0100081B010008C0
:1000B0001B0100081B0100081B0100081B010008B0
:1000C0001B0100081B0100081B0100081B010008A0
:1000D0001B0100081B0100081B0100081B01000890
:1000E0001B0100081B0100081B010008DFF80CD0F1
:1000F00000F052FA00480047012D0008A804002033
:100100000648804706480047FEE7FEE7FEE7FEE7B1
:10011000FEE7FEE7FEE7FEE7FEE7FEE769210008EF
:10012000ED000008202A04DB203A21FA02F0002129
:10013000704721FA02F3D040C2F1200291400843F7
:100140001946704740EA01039B0703D009E008C93C
:10015000121F08C0042AFAD203E011F8013B00F88C
:10016000013B521EF9D27047D2B201E000F8012BD8
:10017000491EFBD270470022F6E710B513460A4627
:1001800004461946FFF7F0FF204610BD421C10F848
:10019000011B0029FBD1801A704730B50B46014680
:1001A00000202022012409E021FA02F59D4205D316
:1001B00003FA02F5491B04FA02F52844151EA2F1C0
:1001C0000102F1DC30BD2DE9F05F054600209246CA
:1001D0009B4688460646814640241BE02846414609
:1001E00047462246FFF79EFF53465A46C01A9141A2
:1001F00010D311461846224600F0E0F92D1A67EB9D
:1002000001084F4622460120002100F0D7F917EBE4
:1002100000094E41201EA4F10104DFDC48463146AE
:100220002A464346BDE8F09F2DE9FE4F804681EA0D
:100230000300C00F0C46009021F0004123F0004560
:10024000B8EB0200A94105D24046214690461C4623
:100250000B46024623F00040104347D0270DC7F35A
:100260000A00C3F30A510290401A019040286BDA49
:10027000C3F3130040F4801B0098924620B1002382
:10028000D2EB030A63EB0B0B01985946C0F1400215
:10029000504600F093F906460D4650465946019ADD
:1002A00000F09BF910EB08006141002487EA11522D
:1002B00084EAE7731A4340D0009A62B3019A012A94
:1002C0004FEA075215DC001B61EB02014FF00042C0
:1002D00002EA0752CDE90042001C41F58011324686
:1002E0002B4600F09BF903B0BDE8F08F4046214655
:1002F000F9E7001B61EB0201001C41F580130018B7
:100300005B412018A2F5001747EB030140EAD570C6
:10031000B6196D4111E06D084FEA360645EAC07521
:100320004FEA0752001B61EB0201001C41F58011EE
:1003300049084FEA30000019514132462B4603B0BC
:10034000BDE8F04F00F05BB90098012240000023A7
:10035000D0EB020263EBE073009821464FEAE074B1
:10036000B8EB000061EB0401E9E783F000435BE7D1
:1003700081F0004158E72DE9FE4F81EA030404F0C3
:10038000004421F0004100944FF0000B23F00043A3
:1003900050EA01045ED052EA03045BD0C3F30A546E
:1003A000C1F30A552C44A4F2F3340194A0FB025487
:1003B000C1F3130141F48011C3F3130343F4801319
:1003C00001FB024400FB034E840A970A44EA81546D
:1003D00047EA8357A4FB076802958D0A05FB07854A
:1003E0004FEA932C04FB0C542705029D4FEA065854
:1003F00047EA1637B5EB08056EEB070C870E920E31
:1004000047EA811742EA8312A7FB0201B6EB0B0110
:1004100064EB00042B0D43EA0C335E1844EB1C50D4
:10042000DA465146E7FB0201C5F313044FEA0B33EA
:1004300043EA14534FEA0432019C43EA0603A4F151
:100440000C040294009CCDE900B400F0E7F803B07E
:10045000BDE8F08F00200146F9E72DE9F04D81EA73
:10046000030404F0004B21F0004514464FF0000A4D
:1004700023F0004150EA050220D054EA01021DD0C9
:10048000C5F30A570246C5F31303C1F31300C1F3C2
:100490000A5640F4801543F48013A7EB0608101B9E
:1004A000D64608F2FD3873EB050002D308F10108C7
:1004B00001E092185B41B8F1000F03DA0020014619
:1004C000BDE8F08D00204FF48011064684460EE012
:1004D000171B73EB050705D3121B63EB05030643DC
:1004E0004CEA010C49084FEA300092185B4150EA8F
:1004F0000107EDD152EA030012D082EA040083EA38
:100500000501084305D0101BAB4106D20122002390
:1005100006E000224FF0004302E06FF001025310AA
:100520001AEB06004CEB085110EB0A0041EB0B01F3
:10053000BDE8F04D00F063B8C1F30A52C1F31301F6
:1005400040F2FF3341F480119A4202DA0020014662
:10055000704740F233439A42A2F2334202DC5242E5
:10056000FFF7E0BD00F02AB830B5041E71F10004B9
:1005700004DB4FF00044404264EB0101141E73F1B0
:10058000000405DB1C464FF00043524263EB0403BA
:10059000994208BF904230BD064C074D06E0E06826
:1005A00040F0010394E8070098471034AC42F6D3BA
:1005B000FFF7A0FDD82D0008F82D0008202A04DB45
:1005C000203A00FA02F1002070479140C2F1200366
:1005D00020FA03F3194390407047202A06DBCB171B
:1005E000203A41FA02F043EAE07306E041FA02F3EE
:1005F000D040C2F12002914008431946704710B51F
:10060000141E73F1000408DA401C41F10001921835
:100610005B411A4301D120F0010010BD2DE9F04DDE
:1006200092469B4611B1B1FA81F202E0B0FA80F233
:1006300020329046FFF7C2FF04460F4640EA0A0008
:1006400041EA0B0153465A46084313D0114653EA78
:10065000010019D0C8F140025046FFF763FD05467E
:100660000E46504659464246FFF7A8FF084305D0BC
:10067000012004E020463946BDE8F08D0020054306
:1006800046EAE0762C4337430A986305E40AA0EB78
:1006900008000022FD0A44EA47540A3002D500202F
:1006A0000146E9E7010510196941DDE9084500192E
:1006B0006941BDE8F04DA2E700BFFEE77047704713
:1006C00070B5044600F0AEF906462546681C10B128
:1006D00004480078054400BF00F0A4F9801BA8423C
:1006E000FAD370BD080000202DE9F8470346002228
:1006F00094466EE14FF0010808FA02F4D1F8008048
:1007000008EA0400A0427DD1DFF8DCA2D1F8048021
:10071000A8EB0A09D0453AD014DCB8F1030F50D049
:1007200009DCB8F1000F31D0B8F1010F1CD0B8F1DD
:10073000020F49D120E0B8F1110F18D0B8F1120F13
:1007400042D11EE0B9F5881F25D006DCB9F5803FFF
:1007500020D0B9F5801F37D11AE0B9F5001F18D0A5
:10076000B9F5041F30D117E0D1F80CC02DE0D1F855
:100770000C8008F1040C28E0D1F80C8008F1080C7A
:1007800023E0D1F80C8008F10C0C1EE000BF00BF84
:1007900000BF00BF00BF00BFD1F80880B8F1000F54
:1007A00002D14FF0040C0BE0D1F80880B8F1010F32
:1007B00003D14FF0080C1C6102E04FF0080C5C61A3
:1007C00003E04FF0000C00E000BF00BFFF2801D89D
:1007D000984601E003F104084646FF2802D84FEA94
:1007E000820803E0A2F108084FEA88084746D6F8D5
:1007F00000804FF00F0909FA07F928EA09080CFAF6
:1008000007F900E088E048EA0908C6F80080D1F856
:10081000048008F08058B8F1805F7DD100BFDFF818
:10082000CC81D8F8188048F00108DFF8C091C9F8E9
:100830001880C846D8F8188008F00108CDF8008064
:1008400000BF00BF4FEAB9384FEA920958F8295063
:100850004FEA82784FEA18794FF00F0808FA09F842
:1008600025EA0805DFF88881434502D14FF00008EA
:1008700016E0DFF88081434502D14FF001080FE018
:10088000DFF87481434502D14FF0020808E0DFF839
:100890006C81434502D14FF0030801E04FF004089A
:1008A0004FEA82794FEA197908FA09F848EA05050A
:1008B000DFF84C814FEA920948F82950D1F80480BA
:1008C00008F48038B8F5803F0AD1DFF83881D8F8CD
:1008D000008048EA0008DFF82C91C9F8008009E0A0
:1008E000DFF82081D8F8008028EA0008DFF81491AA
:1008F000C9F80080D1F8048008F40038B8F5003F4A
:1009000010D1DFF8008108F10408D8F8008048EA27
:100910000008DFF8F09000E05AE009F10409C9F896
:1009200000800DE0DFF8DC8008F10408D8F80080D2
:1009300028EA0008DFF8CC9009F10409C9F8008022
:10094000D1F8048008F48018B8F5801F0ED1DFF8C4
:10095000B48008F10808D8F8008048EA0008DFF8F9
:10096000A49009F10809C9F800800DE0DFF894802F
:1009700008F10808D8F8008028EA0008DFF8849019
:1009800009F10809C9F80080D1F8048008F40018BA
:10099000B8F5001F0ED1DFF86C8008F10C08D8F80C
:1009A000008048EA0008DFF85C9009F10C09C9F8FA
:1009B00000800DE0DFF84C8008F10C08D8F80080CA
:1009C00028EA0008DFF83C9009F10C09C9F800801A
:1009D000521CD1F8008028FA02F8B8F1000F7FF419
:1009E00089AEBDE8F8870000000011100010024039
:1009F00000080140000C01400010014000140140BB
:100A00000800014000040140024693680B400BB10E
:100A1000012000E0002070470AB1016101E00B04F1
:100A20000361704701480068704700000000002023
:100A30000348006803490978084401490860704781
:100A4000000000200800002010B50848006840F0B1
:100A5000100006490860032000F098F8002000F01C
:100A600007F800F02BF8002010BD00000020024025
:100A700070B504460E4800784FF47A71B1FBF0F07F
:100A80000C490968B1FBF0F5284600F085FC08B177
:100A9000012070BD102C07D200222146501E00F00C
:100AA00037F80548046001E00120F2E70020F0E794
:100AB000080000200C0000200400002008B500BF42
:100AC0001148806940F001000F498861084680693B
:100AD00000F00100009000BF00BF00BF0846C069E1
:100AE00040F08050C8610846C06900F08050009016
:100AF00000BF00BF00BF0549486820F0E06040F03B
:100B00000070486000BF08BD0010024000000140B6
:100B10002DE9F05F80460D461646002701F048FC9F
:100B2000074639462A46334601F00700C0F1070A56
:100B3000BAF1040F02D94FF0040A01E0C0F1070A2C
:100B4000D14600F1040ABAF1070F02D24FF0000AB1
:100B500001E0A0F1030AD4464FF0010A0AFA09FAAB
:100B6000AAF1010A0AEA020A0AFA0CFA4FF0010B8A
:100B70000BFA0CFBABF1010B0BEA030B4AEA0B047B
:100B80002146404601F01CFCBDE8F09F00BF00F08C
:100B90000702064B19684FF6FF031940044B0B433D
:100BA00043EA0221014B196000BF70470CED00E0E1
:100BB0000000FA0570B504460D460CB9012070BD61
:100BC0005A48006800F00700A8420ED25748006853
:100BD00020F007002843554908600846006800F0E7
:100BE0000700A84201D00120E9E7207800F00200C8
:100BF00002281DD1207800F00400042805D14C48BB
:100C0000406840F4E0604A494860207800F00800FD
:100C1000082805D14648406840F46050444948607F
:100C20004348406820F0F000A1680843404948600C
:100C3000207800F0010078B36068012806D13C48B4
:100C4000006800F4003090B90120B8E7606802281D
:100C500006D13748006800F0007040B90120AEE7C7
:100C60003348006800F0020008B90120A7E73048C7
:100C7000406820F00300616808432D494860FFF791
:100C8000D1FE064609E0FFF7CDFE801B41F2883118
:100C9000884202D9032092E707E02548406800F027
:100CA0000C006168B0EB810FEDD12048006800F0C6
:100CB0000700A8420ED91D48006820F0070028430D
:100CC0001A4908600846006800F00700A84201D0F1
:100CD000012074E7207800F00400042807D11448AC
:100CE000406820F4E060E1680843114948602078DA
:100CF00000F00800082808D10D48406820F4605032
:100D0000216940EAC1000A49486000F03FF80849FB
:100D10004968C1F30311074A515CC840064908609D
:100D200006480068FFF7A4FE002048E700200240C4
:100D300000100240602D00080C000020040000207C
:100D400001480068704700000C00002000B5FFF764
:100D5000F7FF04494968C1F30221034A515CC840C6
:100D600000BD000000100240702D000800B5FFF724
:100D7000E7FF04494968C1F3C221034A515CC840F6
:100D800000BD000000100240702D0008F0B585B0D5
:100D90000FF26C0C9CE8E01001A8A0E8E0101CA584
:100DA0002D68009500210022002300240020194D09
:100DB000696801F00C05F5B1042D02D0082D19D198
:100DC00001E0154819E001ADC1F38346AC5D01F4C3
:100DD000803555B10F4D6D68C5F340451DF80520B0
:100DE0000D4D6543B5FBF2F302E00C4D04FB05F33A
:100DF000184602E000BF084800BF00BF05B0F0BDC4
:100E000002030405060708090A0B0C0D0E0F10104B
:100E1000010200000010024000127A0000093D00AB
:100E2000F8B504460CB90120F8BD207800F00100A7
:100E3000002878D0F848406800F00C0004280CD056
:100E4000F548406800F00C00082811D1F2484068CD
:100E500000F48030B0F5803F0AD1EF48006800F41C
:100E6000003000285FD0606800285CD10120DBE7FB
:100E700000BF6068B0F5803F06D1E748006840F4E5
:100E80008030E549086028E0606858B9E2480068A9
:100E900020F48030E04908600846006820F4802093
:100EA00008601AE06068B0F5A02F0BD1DA4800683E
:100EB00040F48020D84908600846006840F480303B
:100EC00008600AE0D448006820F48030D249086005
:100ED0000846006820F48020086000BF606888B180
:100EE000FFF7A0FD054606E0FFF79CFD401B6428C8
:100EF00001D9032098E7C848006800F400300028B2
:100F0000F2D010E0FFF78EFD054606E0FFF78AFD00
:100F1000401B642801D9032086E7BF48006800F41D
:100F200000300028F2D1207800F00200022857D1CA
:100F3000B948406800F00C0050B1B748406800F074
:100F40000C00082818D1B448406800F4803098B9E3
:100F5000B148006800F0020020B12069012801D0EA
:100F6000012061E7AC48006820F0F800616940EAC0
:100F7000C100A949086033E02069E8B10120A74910
:100F80000860FFF74FFD054606E0FFF74BFD401BED
:100F9000022801D9032047E79F48006800F00200BB
:100FA0000028F2D09C48006820F0F800616940EA0F
:100FB000C1009949086013E0002098490860FFF7D4
:100FC00031FD054606E0FFF72DFD401B022801D943
:100FD000032029E79048006800F002000028F2D1C1
:100FE000207800F0080008282DD1A069B8B10120B0
:100FF0008B490860FFF716FD054606E0FFF712FD76
:10100000401B022801D903200EE78348406A00F004
:1010100002000028F2D0012001F05AF813E000206D
:101020007F490860FFF7FEFC054606E0FFF7FAFC83
:10103000401B022801D90320F6E67748406A00F0F9
:1010400002000028F2D1207800F00400042873D1B7
:1010500000277148C06900F0805070B900BF6E4829
:10106000C06940F080506C49C8610846C06900F012
:101070008050009000BF00BF01276A48006800F45C
:101080008070B0B96748006840F4807065490860B6
:10109000FFF7C8FC054606E0FFF7C4FC401B6428C8
:1010A00001D90320C0E65F48006800F48070002882
:1010B000F2D000BFE068012806D15748006A40F02E
:1010C00001005549086227E0E06858B95248006AB3
:1010D00020F00100504908620846006A20F0040030
:1010E000086219E0E06805280BD14B48006A40F01F
:1010F0000400494908620846006A40F0010008629D
:101100000AE04548006A20F00100434908620846A9
:10111000006A20F00400086200BFE068A0B1FFF799
:1011200081FC054609E0FFF77DFC401B41F2883158
:10113000884202D9032077E622E03748006A00F0AF
:1011400002000028EFD012E0FFF76CFC054608E033
:10115000FFF768FC401B41F28831884201D9032027
:1011600062E62D48006A00F002000028F0D1012F4D
:1011700005D12948C06920F080502749C86100BFC7
:10118000E069C8B32448406800F00C00082860D02B
:10119000E069022848D1002020490866FFF742FC98
:1011A000054606E0FFF73EFC401B022801D903205C
:1011B0003AE61948006800F000700028F2D1206A71
:1011C000B0F5803F07D11448406820F40030A16892
:1011D000084311494860D4E9080108430E494968A9
:1011E00021F4741108430C49486001200B4908663A
:1011F000FFF718FC054607E03DE0FFF713FC401B36
:10120000022801D903200FE60348006800F00070AF
:101210000028F2D02FE000000010024000004242FF
:101220008004424200700040002014490866FFF725
:10123000F9FB054606E0FFF7F5FB401B022801D944
:101240000320F1E50E48006800F000700028F2D19C
:1012500011E0E069012800D1E6E50948466806F496
:101260008031206A814204D106F47011606A8142A3
:1012700001D00120D8E50020D6E500000000424260
:101280000010024010B504460CB9012010BD606A80
:1012900000B900BF0021A16294F8510028B90020D4
:1012A00084F85000204600F031F8022084F8510004
:1012B0002068006820F0400021680860D4E901013E
:1012C0000843E16808432169084361690843218BA9
:1012D00001F400710843E1690843216A0843A16AE7
:1012E0000843216808600421A06901EA10402168D0
:1012F00048602068C06920F400602168C86100204F
:101300006065012084F851000020BFE710B586B069
:101310000446002002900390049005901B49206829
:10132000884230D100BF1A48C06940F48040184953
:10133000C8610846C06900F48040019000BF00BF4A
:1013400000BF0846806940F008008861084680694F
:1013500000F00800019000BF00BF4FF42040029051
:10136000022003900320059002A90A48FFF7BCF968
:101370004FF480400290002003900120049002A9C5
:101380000448FFF7B1F906B010BD00000038004076
:1013900000100240000C014070B504462546681E4E
:1013A000B0F1807F01D301200FE0681E4FF0E021F3
:1013B00048610F214FF0FF3001F002F800204FF09C
:1013C000E021886107200861002070BD10B5044647
:1013D0000CB9012010BDA06900B100E000BF94F875
:1013E000390028B9002084F83800204600F028F899
:1013F000242084F839002068C06820F40050216857
:10140000C860204600F0DCFE2068006920F49040AF
:10141000216808612068406920F02A00216848613D
:101420002068C06840F400502168C8600020E06374
:10143000202084F8390084F83A000020CAE7000030
:1014400010B586B0044600200290039004900590E9
:101450001A49206888422ED100BF1948806940F49B
:101460008040174988610846806900F480400190F7
:1014700000BF00BF00BF0846806940F004008861DB
:101480000846806900F00400019000BF00BF4815C5
:101490000290022003900320059002A90948FFF75B
:1014A00023F94FF48060029000200390049002A979
:1014B0000448FFF719F906B010BD000000380140DC
:1014C000001002400008014000BFFEE72DE9F8438C
:1014D0000746884615461C464FF0000900260020A6
:1014E00020804146384600F06BFD0A20FFF7E8F8FF
:1014F00000F02CFC00F4804010B94FF0FF391BE0E5
:101500000A20FFF7DDF800F026FCC0F30800061EF5
:1015100002D16FF001090FE00A208DF800000020D1
:101520008DF801000221684600F04AFD3146284648
:1015300000F0ACFC268000BF024800F0D5FB484616
:10154000BDE8F883FFFF0F008EB0002600240027BF
:1015500000200A900B900C900D9006900790089038
:101560000990059050A103C9CDE903010525A046C6
:101570000020029000F0D2FC00BF4DA001F0A4FBBF
:101580004E4801F0A1FB012000F05CFC00F0D2FB12
:101590004021002000F07CFD6FF04001002000F0B1
:1015A00059FD474800F0A0FB6FF00701002000F054
:1015B00051FD0321002000F06BFD00F037FAB0F17F
:1015C000000803D13FA001F07FFB65E0414642A047
:1015D00001F07AFB02A905A800F024F9071E04D047
:1015E000394641A001F070FB56E09DF808109DF8C7
:1015F0001700CDE900019DF816309DF815209DF8E3
:10160000141044A001F060FB2B46602203A905A83A
:1016100000F084F9071E04D039464AA001F054FBBB
:101620003AE053A001F050FB3246711CCEB21021BB
:1016300006A8FEF799FD06A9284600F021FA071E24
:1016400004D0394651A001F03FFB25E0294658A0BF
:1016500001F03AFB00200A900B900C900D900AA923
:10166000284600F09DF9071E04D0394659A001F024
:101670002BFB11E029465FA001F026FB002405E0CA
:101680000AA8015D64A001F01FFB641C102CF7DBAD
:1016900063A001F019FB00BF00F040FB4FF47A702B
:1016A000FFF70EF869E70000FFFFFFFFFFFF0000F4
:1016B0000D0A0D0A0D0A0D0A00000000782D000821
:1016C000FFFF0F00205265717565737441204661FC
:1016D000696C6564210D0A0020415451413A25305E
:1016E00034580D0A00000000204D696661726520C3
:1016F000416E7469636F6C6C6973696F6E204661CB
:10170000696C65642C457272436F64653A25640D9B
:101710000A00000020554944203A2530325825302F
:1017200032582530325825303258202020200D0ADA
:101730002053414B203A25303258202020200D0ADA
:1017400000000000204D6966617265204175746873
:10175000656E746963617465204661696C65642CAB
:101760004572726F72436F64653A25640D0A00001A
:10177000204D69666172652041757468656E746993
:1017800063617465204F4B2E0D0A0000205772696B
:10179000746520426C6F636B204661696C65642CD4
:1017A000457272436F64653A25640D0A00000000BB
:1017B00020577269746520426C6F636B202530324C
:1017C00064205375636365737366756C6C792E0D55
:1017D0000A000000205265616420426C6F636B2038
:1017E0004661696C65642C457272436F64653A2585
:1017F000640D0A0020526561642020426C6F636BA7
:101800002025303264205375636365737366756C8D
:101810006C792E205B20000025303258200000001B
:101820005D0D0A00F0B589B005460E464FF0FF3752
:1018300000200890002400BF09222146641C0DF8F6
:10184000012000222146641C0DF80120932221462C
:10185000641C0DF8012020222146641C0DF8012093
:10186000214608AB04AA6846FFF730FE002852D193
:10187000BDF8200005284ED10498286000240922D4
:101880002146641C0DF8012000222146641C0DF83D
:10189000012093222146641C0DF80120702221466C
:1018A000641C0DF801202A782146641C0DF80120E3
:1018B0006A782146641C0DF80120AA782146641C30
:1018C0000DF80120EA782146641C0DF801202878E3
:1018D00069784840A9784840E97841402246641C2C
:1018E0000DF802100121192000F0D2FB0121122075
:1018F00000F0CEFBE1B208AB04AA6846FFF7E6FDB4
:1019000038B9BDF8200020B19DF8100030700027D4
:1019100001E06FF00107384609B0F0BDF0B585B0C1
:1019200005460C4616461F460020049018A30FCB10
:101930008DE80F0020788DF8010060788DF80200A6
:10194000A0788DF80300E0788DF8040020798DF8F8
:10195000050060798DF806008DF807608DF8087035
:1019600028788DF8090068788DF80A00A8788DF835
:101970000B00E8788DF80C000D21684600F020FB84
:10198000012104A800F082FA9DF8100005B0F0BD16
:101990000C0000000000000000000000000000003B
:1019A000F0B589B004460D4600261EA000680890D8
:1019B000E0B28DF8230000270121192000F068FB18
:1019C000B11E122000F046FB042108A800F0F8FA2E
:1019D0000520FEF775FE00F0BEF9C0F30800071EF3
:1019E00001D1461E17E020216846FEF7C4FB0A20FD
:1019F0008DF8200000208DF82100022108A800F0B9
:101A0000DFFA3946684600F041FA10226946284656
:101A1000FEF798FB00BF044800F066F9304609B0B5
:101A2000F0BD000009003000FFFF0F0010B58AB0C4
:101A300000240020099009208DF8000007208DF86F
:101A4000010052208DF80200A11E192000F002FBB7
:101A5000A11E122000F0FEFA09AB01AA032168467C
:101A6000FFF734FD48B9BDF82400022805D19DF8E0
:101A700004009DF8051040EA012420460AB010BD7C
:101A8000F0B589B004460D46002600270121192033
:101A900000F0FEFAB11E122000F0DCFA09208DF8E9
:101AA000040000208DF80500A0208DF80600E0B2AB
:101AB0008DF80700042101A800F082FA0220FEF749
:101AC000FFFD00F048F9C0F30800071E01D1461ED3
:101AD0002BE009208DF8040000208DF8050010226D
:101AE00029460DF10600FEF72DFB122101A800F09A
:101AF00067FA0520FEF7E4FD202101A8FEF73BFB75
:101B00000A208DF8040000208DF80500022101A8AC
:101B100000F056FA394601A800F0B8F99DF8040023
:101B20000A2801D06FF0010600BF034800F0DCF87E
:101B3000304609B0F0BD0000FFFF0F0000B585B0D2
:101B40000020019002900390049000BF3A48806901
:101B500040F01000384988610846806900F01000A4
:101B6000009000BF00BF00BF0846806940F0200021
:101B700088610846806900F02000009000BF00BF27
:101B800000BF0846806940F004008861084680690B
:101B900000F00400009000BF00BF00BF084680694D
:101BA00040F0080088610846806900F00800009055
:101BB00000BF00BF01224FF481512048FEF72CFFE7
:101BC0004FF6FF7001900320029001A91C48FEF718
:101BD0008BFD49F6FF1001900320029001A91948DE
:101BE000FEF782FD40F6D77001900320029001A914
:101BF0001248FEF779FD4FF48150019001200290C8
:101C000003900320049001A90C48FEF76DFD042009
:101C100001900320029001A90B48FEF765FD082002
:101C20000190002002900120039001A90348FEF7D3
:101C30005BFD05B000BD000000100240000C01403B
:101C400000100140000801400014014010B50E488A
:101C50000E4908604FF48270486000210B48816093
:101C6000C160016141614FF4007181613821C1613E
:101C700000210162416281620A21C162FFF702FB19
:101C800008B1FEF71CFD10BD003800401000002018
:101C900010B50B480B4908604FF4E1304860002153
:101CA00008488160C16001610C21416100218161AE
:101CB000C161FFF78BFB08B1FEF701FD10BD00000D
:101CC000003801406800002000BFFEE770470000B8
:101CD00010B508210348FEF797FE012800D110BD7A
:101CE0000020FCE7000C014070B504464FF0FF35C2
:101CF0002146032000F094F900F028F8204000B9B4
:101D00000025284670BD000010B5012211030248CD
:101D1000FEF782FE10BD0000000C014008B504A0D3
:101D2000006800900221684600F04AF908BD0000F2
:101D30001700000008B504A0006800900221684662
:101D400000F03EF908BD00001600000010B50220AA
:101D500000F0CEF810BD10B5132000F0C9F810BD8A
:101D60001CB500200190009000F0D8F8022201A9D3
:101D7000122000F0A7F8BDF804004FF6FF7188426A
:101D800005D11EA000F0A0FF4FF0FF301CBDBDF834
:101D90000400C2B2010A1FA000F096FF6FF0040118
:101DA000012000F057F92649032000F039F9BDF869
:101DB0000400B0F5427F1EDB01226946E82000F0F6
:101DC00081F89DF8000000F0010028B19DF80000A6
:101DD00000F0060002280ED09DF8000000F0F90087
:101DE00000909DF8000040F0030000900122694639
:101DF000E82000F0FFF80020C8E7000020706E35F2
:101E000031383020696E6974206661696C656421BF
:101E10000D0A000020706E3531383020696E69740B
:101E2000206F6B2C6669726D7761726520766572C2
:101E300073696F6E3A25642E25640D0A0000000058
:101E4000FFFF0F0038B504460FA000680090012C7A
:101E500004D0022C09D0032C0FD10DE000208DF806
:101E6000010080208DF8020008E00D208DF80100AF
:101E70008D208DF8020001E000E000BF00BF0321CB
:101E8000684600F09DF838BD110000002DE9F041D2
:101E900004460D460026274600BFFFF719FF00281D
:101EA000FBD100F083F8002605E0FF2000F052F897
:101EB00007F8010B761CAE42F7D3FFF725FFBDE80C
:101EC000F0810000F8B506460D46144607A00068EC
:101ED00000908DF801608DF802400321684600F003
:101EE0006FF821462846FFF7D1FFF8BD0700000034
:101EF0001CB504460020019007A0006800908DF8F2
:101F000001400221684600F05BF8042101A8FFF7B8
:101F1000BDFF01981CBD00000400000010B50122A7
:101F200020210B48FEF778FD0220FEF7C9FB0022B6
:101F300020210748FEF770FD0220FEF7C1FB0122B9
:101F400020210348FEF768FD0220FEF7B9FB10BD13
:101F5000000C01400146002206E0501CC0B20246BF
:101F6000C82801DD002070470F4800688068C0F372
:101F700040000028F1D00C480068C160002206E053
:101F8000501CC0B20246C82801DD0020EBE706481D
:101F90000068806800F001000028F1D00248006865
:101FA000C068C0B2DFE700001000002010B50022BA
:101FB0004FF480510148FEF72FFD10BD000C014089
:101FC0002DE9F04104460D460026274600BFFFF7E5
:101FD0007FFE0028FBD1FFF7E9FF002604E017F899
:101FE000010BFFF7B7FF761CAE42F8D3FFF78CFE6C
:101FF000BDE8F081F8B506460D46144607A0006816
:1020000000908DF801608DF8024003216846FFF7CB
:10201000D7FF21462846FFF7D3FFF8BD0600000092
:102020007CB505460C460020009001908DF80150CB
:10203000E0B28DF80200200A8DF80300200C8DF824
:102040000400200E8DF8050006216846FFF7B8FF52
:102050007CBD00007CB505460C460BA103C9CDE94B
:1020600000018DF80150E0B28DF80200200A8DF8D1
:102070000300200C8DF80400200E8DF805000621C9
:102080006846FFF79DFF7CBD0200000000000000D5
:102090007CB505460C460BA103C9CDE900018DF8BE
:1020A0000150E0B28DF80200200A8DF80300200CE8
:1020B0008DF80400200E8DF8050006216846FFF714
:1020C0007FFF7CBD010000000000000070470000A1
:1020D00008B508490968C9084FF47A72B1FBF2F1F2
:1020E0004143009100BF00BF00994A1E00920029A1
:1020F000F9D108BD0C000020704710B5FEF798FC20
:1021000010BD00B58FB0282105A8FEF734F81421C2
:102110006846FEF730F80120059000040690002084
:1021200007900120099002200C90C1030D914FF4FB
:10213000E0110E9105A8FEF773FE08B1FEF7BFFA95
:102140000F20009002200190002002904FF4806048
:1021500003900020049002216846FEF72BFD08B191
:10216000FEF7ADFA0FB000BD1148006840F0010065
:102170000F490860084640680E4908400C4948600D
:10218000084600680C49084009490860084600688C
:1021900020F4802008600846406820F4FE00486073
:1021A0004FF41F008860C8030449086070470000AE
:1021B000001002400000FFF8FFFFF6FE08ED00E00F
:1021C00070B504462168096921F44051E268114361
:1021D000226811612269A1681143626941EA02051E
:1021E0002168C96841F20C62914329432268D16099
:1021F0002168496921F44071A26911432268516143
:10220000564A2168914254D1FEF7B0FD00EBC0015F
:1022100001EB001162689200B1FBF2F100EBC00229
:1022200002EB001263689B00B2FBF3F26423B2FB83
:10223000F3F202EBC20303EB0212A1EB82013222A2
:1022400002EB01116422B1FBF2F101F0F00100EBAD
:10225000C00202EB001263689B00B2FBF3F264233E
:10226000B2FBF3F201EB021200EBC00101EB001133
:1022700063689B00B1FBF3F100EBC00303EB0013B9
:102280006668B600B3FBF6F36426B3FBF6F303EB24
:10229000C30606EB0313A1EB8301322303EB011109
:1022A0006423B1FBF3F101F00F0111442268916046
:1022B00053E0FEF74BFD00EBC00101EB001162683B
:1022C0009200B1FBF2F100EBC00202EB0012636876
:1022D0009B00B2FBF3F26423B2FBF3F202EBC20306
:1022E00003EB0212A1EB8201322202EB0111642204
:1022F000B1FBF2F101F0F00100EBC00202EB0012C1
:1023000063689B00B2FBF3F26423B2FBF3F201EBD0
:10231000021200EBC00101EB001163689B00B1FBEE
:10232000F3F100EBC00303EB00136668B600B3FBE8
:10233000F6F36426B3FBF6F303EBC30606EB0313D5
:10234000A1EB8301322303EB01116423B1FBF3F111
:1023500001F00F0111442268916070BD0038014006
:1023600030B50B460AE000BF04682468C4F3C0140B
:10237000002CF9D013F8014B05686C60141EA2F113
:102380000102F0D130BD00BFFEE7000037B51446B2
:102390000846064B6A46214600F0F8F804466946AE
:1023A000002000F08AFC20463EBD0000BB2C000847
:1023B00002480068C0F30220704700000CED00E006
:1023C00010B5002804DB0A07130E054A135406E073
:1023D0000A07140E034A00F00F031B1FD45410BD4C
:1023E00000E400E018ED00E002E008C8121F08C198
:1023F000002AFAD170477047002001E001C1121F86
:10240000002AFBD1704700002DE9FF5F82B0002158
:10241000DDE90430020DDDF840B0034318D044F686
:102420001050A2F2FF3242431514119801281FD018
:10243000A5EB0B00401C5FEA000A4FF000064E4F70
:10244000DFF83891B046504615D5CAF1000413E0C4
:10245000119801244AA3012801D16FEA0B010298C7
:10246000119AC0E90031C0E9024206B0BDE8F09F10
:10247000CBF10000DFE704460021404A491842EB57
:102480000450CDE9001012E0E00707D032463B4689
:1024900040464946FDF76FFF8046894632463B4637
:1024A00010461946FDF767FF06460F466410002CDC
:1024B000EAD1DDE90401DDE90023BAF1000F06DA13
:1024C000FDF759FF42464B46FDF755FF05E0FDF786
:1024D000C4FF42464B46FDF7C0FF04460E460022AD
:1024E000284BFEF741F803D84FF0FF30014607E0D4
:1024F0000022254B20463146FDF796FEFEF71CF8DC
:10250000102409E0002C0ADB0A220023FDF75BFE01
:10251000039B30321A55641E50EA0102F2D1641C4A
:10252000039AC4F111031444119A012A03D0012221
:1025300008430DD10AE0084304D000204FF0110BEE
:10254000119072E7A3EB0B056D1E0DE05B4504DDFA
:102550004FF0000205F1010504E003DA4FF000023C
:10256000A5F10105002AECD002981199C0E90231C9
:10257000C0E9004579E70000000014400000F03F8A
:10258000300000000000F0430000E03F2DE9FF4F65
:1025900095B09B468946064600250FE2252877D14F
:1025A00000242746F84A0121059400E0044316F868
:1025B000013F203B01FA03F01042F7D130782A287E
:1025C00011D06FF02F033078A0F13002092A16D80D
:1025D000059A44F0020402EB820203EB420210442B
:1025E000761C0590EFE759F8042B0592002A03DAD0
:1025F000504244F40054059044F00204761C3078B4
:102600002E2816D116F8010F44F004042A280DD004
:102610006FF02F023078A0F13003092B09D807EBB7
:10262000870302EB4303C718761CF3E759F8047BD2
:10263000761C30786C280FD006DC4C2817D0682820
:102640000DD06A2814D104E0742810D07A280FD154
:102650000DE044F400140AE044F4801401E044F472
:1026600040147278824202D104F58014761C761CE4
:10267000307866280BD013DC582877D009DC002886
:1026800075D04528F6D04628F4D047281AD19DE1C8
:1026900018E0632835D0642879D0652812D195E1F7
:1026A000702873D008DC6728F1D069286FD06E28B5
:1026B0000DD06F2806D1B5E073282CD0752875D0C1
:1026C000782874D05A46179990476D1C75E1C4F369
:1026D0000250022809D003280DD0D9F80010042890
:1026E0000DD00D6009F1040967E1D9F80010EA176F
:1026F000C1E90052F6E7D9F800100D80F2E70D703D
:10270000F0E719F8041B8DF8001000208DF8010087
:10271000EA46012003E059F804AB4FF0FF306107AF
:102720004FF0000102D40DE008F101018846B942E2
:102730000FDA8045F8DB1AF808100029F4D108E018
:1027400008F1010188468142FADB1AF808100029D5
:10275000F6D105985B46A0EB080721463846179A44
:1027600000F094FA284400EB080507E04DE029E169
:102770000DE01AF8010B5A4617999047B8F1010875
:10278000F7D25B4621463846179A13E142E00A2207
:102790000092C4F302524FF0000A022A08D059F8FE
:1027A00004CB032A4FEAEC710AD00DE029E02AE0BD
:1027B00009F1070121F00702F2E802C1914609E0A0
:1027C0000FFA8CFC4FEAEC71042A03D14FFA8CFC0F
:1027D0004FEAEC71002907DA0A460021DCF1000C0F
:1027E00061EB02012D2202E0220504D52B228DF897
:1027F0000420012203E0E20701D02022F7E79046FF
:1028000059E00A2102E010220DE010214FF0000AE9
:1028100000910BE010224FF0000A44F00404082756
:10282000009203E008224FF0000A0092C4F3025223
:10283000022A05D059F804CB0021032A08D009E068
:1028400009F1070121F00702F2E802C1914605E013
:102850001FFA8CFC042A01D10CF0FF0C4FF0000889
:10286000220728D5702806D0009B83F0100353EA76
:102870000A0305D00EE040228DF80420012208E072
:102880005CEA010206D030228DF804208DF80500A4
:1028900002229046009B83F0080353EA0A030AD100
:1028A0005CEA010201D1620705D530228DF80420CF
:1028B0004FF001087F1E582804D034A003900EA8C2
:1028C00002900DE036A0F9E753466046009AFDF706
:1028D0007AFC84460398825C0298401E0290027043
:1028E0005CEA0100F0D1029806A9081A00F1200A5A
:1028F000600702D524F4803400E00127574502DD4B
:10290000A7EB0A0000E0002000EB0A010090059808
:102910004144401A0590E00306D45B462146179ACD
:10292000059800F0B3F90544002706E001A85A46CF
:10293000C05D179990476D1C7F1C4745F6DBE0038F
:102940000CD55B462146179A059800F09FF905447F
:1029500004E030205A46179990476D1C0099481E94
:1029600000900029F5DC08E0029802995A460078A8
:10297000491C0291179990476D1CBAF10001AAF108
:10298000010AF1DC65E10000092801003031323331
:10299000343536373839616263646566000000009B
:1029A0003031323334353637383941424344454685
:1029B0000000000000F058F90544761C307800282B
:1029C0007FF4ECAD19B02846BDE8F08F620700D463
:1029D000062709F1070222F0070CFCE80223E14672
:1029E00003F000485FEA080C02D00FF2702C0DE0F3
:1029F0005FEA045C02D50FF2682C07E05FEAC47C52
:102A000002D00FF2602C01E0AFF2700C4FF0FF38F3
:102A100023F00043CDF850C065280CD006DC4528D3
:102A200009D046281DD047283DD13DE0662818D062
:102A300067287ED138E00021112F01DB112000E052
:102A4000781CCDE9000106A90EA8FFF7DDFCDDE941
:102A50000F010E9A03910021009207F1010A0491DF
:102A60004DE04FF000400097CDE9011006A90EA8F7
:102A7000FFF7CAFCDDE90F0203920E9B11990022B9
:102A8000DDF80CA00093049211B9791C00EB010A47
:102A9000B7EB0A0004D4C0F1FF3007F1010A04903B
:102AA000AAEB0700019044E0012F00DA0127002182
:102AB000112F01DD112000E03846CDE9000106A903
:102AC0000EA8FFF7A1FCDDE90F010E9A039100218A
:102AD00004910092BA4621070CD40399514500DABB
:102AE0008A46BAF1010F05DD009AAAF10101515C95
:102AF000302908D0B84202DA10F1040F06DA0121B9
:102B0000CDE9011015E0AAF10101E9E7002805DC93
:102B1000049901440491AAEB000102E0411C5145D3
:102B200000DD8A460499401A401C01904FF0004095
:102B30000290200704D40198504501DBCDF80480B1
:102B400000208DF84F0002980DF14F07B0F1004FB3
:102B500025D02B200E9002984FF0020800280CDAA6
:102B6000404202902D200E9007E00A210298FDF7C6
:102B700014FB3031029007F8011DB8F10001A8F1F3
:102B80000108F2DC02980028EFD1791E0E98087037
:102B9000307800F0200040F0450007F8020D12A840
:102BA000C01B00F107081498007800B1012000EB69
:102BB0000A01019801EBE07105984144401A401E5A
:102BC0000590E00306D45B462146179A059800F06D
:102BD0005DF805441498007818B15A461799904743
:102BE0006D1CE00324D55B462146179A059800F03A
:102BF0004DF805441CE00498002807DBDDE90301DB
:102C0000884203DD0098405C179901E01799302055
:102C10005A469047049805F10105401C049001981C
:102C2000401E019004D12E205A46179990476D1CE2
:102C3000BAF10001AAF1010ADDDC05E017F8010B89
:102C40005A46179990476D1CB8F10001A8F1010888
:102C5000F4DC5B462146179A0598ABE62D00000090
:102C60002B000000200000002DE9F0410446002563
:102C70001E461746880404D405E039462020B04794
:102C80006D1C641EF9D52846BDE8F0812DE9F041A0
:102C9000044600251E469046C80301D5302700E0B3
:102CA0002027880404D505E041463846B0476D1C0E
:102CB000641EF9D52846BDE8F0810A68531C0B60F4
:102CC00010707047704700000FB410B5A2B025A86F
:102CD000019002A8019A2499FFF758FB0020019067
:102CE00002A8FDF753FA0446224602A90348FFF75B
:102CF00037FB22B010BC5DF814FB00006800002018
:102D0000FDF7A2FEFFF7FDF9FEF718FFFEF79EFFA5
:102D1000FEF7BEFF0A480068006840F0400008491E
:102D200009680860FFF7CEFF00BFFFF719F8002819
:102D3000FBD104A0FFF7C8FFFEF706FC00BFFEE7CB
:102D400010000020202A2A2A2A2A20706E353138C5
:102D50003064656D6F202A2A2A2A200D0A0000009F
:102D6000000000000000000001020304060708093B
:102D700000000000010203042A2A2A2A2A2A2A2AF9
:102D80002A2A2A2A2A2A2A2A2A2A2A2A2A2A2A2AA3
:102D90002A2A2A2A2A2A2020706E353138302069C2
:102DA000736F31343434332074797065204120647A
:102DB000656D6F202A2A2A2A2A2A2A2A2A2A2A2ABA
:102DC0002A2A2A2A2A2A2A2A2A2A2A2A2A2A2A2A63
:102DD0002A2A0D0A00000000F82D0008000000203B
:102DE00010000000E8230008082E00081000002052
:102DF00098040000F8230008000000001000000004
:082E0000010000000024F400B1
:04000005080000ED02
:00000001FF
